{
  "contractName": "UniversityHousing",
  "abi": [
    {
      "inputs": [],
      "name": "rentCount",
      "outputs": [
        {
          "internalType": "uint256",
          "name": "",
          "type": "uint256"
        }
      ],
      "stateMutability": "view",
      "type": "function"
    },
    {
      "inputs": [
        {
          "internalType": "uint256",
          "name": "",
          "type": "uint256"
        }
      ],
      "name": "rents",
      "outputs": [
        {
          "internalType": "uint256",
          "name": "id",
          "type": "uint256"
        },
        {
          "internalType": "address",
          "name": "owner",
          "type": "address"
        },
        {
          "internalType": "address",
          "name": "renter",
          "type": "address"
        },
        {
          "internalType": "uint256",
          "name": "rentValue",
          "type": "uint256"
        }
      ],
      "stateMutability": "view",
      "type": "function"
    },
    {
      "inputs": [
        {
          "internalType": "uint256",
          "name": "_rentId",
          "type": "uint256"
        }
      ],
      "name": "getRent",
      "outputs": [
        {
          "components": [
            {
              "internalType": "uint256",
              "name": "id",
              "type": "uint256"
            },
            {
              "internalType": "address",
              "name": "owner",
              "type": "address"
            },
            {
              "internalType": "address",
              "name": "renter",
              "type": "address"
            },
            {
              "internalType": "uint256",
              "name": "rentValue",
              "type": "uint256"
            }
          ],
          "internalType": "struct UniversityHousing.Rent",
          "name": "",
          "type": "tuple"
        }
      ],
      "stateMutability": "view",
      "type": "function"
    },
    {
      "inputs": [
        {
          "internalType": "uint256",
          "name": "_rentValue",
          "type": "uint256"
        }
      ],
      "name": "postRent",
      "outputs": [
        {
          "internalType": "uint256",
          "name": "",
          "type": "uint256"
        }
      ],
      "stateMutability": "nonpayable",
      "type": "function"
    },
    {
      "inputs": [
        {
          "internalType": "uint256",
          "name": "_rentId",
          "type": "uint256"
        },
        {
          "internalType": "uint256",
          "name": "_rentValue",
          "type": "uint256"
        }
      ],
      "name": "changeRentValue",
      "outputs": [],
      "stateMutability": "nonpayable",
      "type": "function"
    },
    {
      "inputs": [
        {
          "internalType": "uint256",
          "name": "_rentId",
          "type": "uint256"
        }
      ],
      "name": "takeRent",
      "outputs": [],
      "stateMutability": "nonpayable",
      "type": "function"
    },
    {
      "inputs": [
        {
          "internalType": "uint256",
          "name": "_rentId",
          "type": "uint256"
        }
      ],
      "name": "leaveRent",
      "outputs": [],
      "stateMutability": "nonpayable",
      "type": "function"
    },
    {
      "inputs": [
        {
          "internalType": "uint256",
          "name": "_rentId",
          "type": "uint256"
        }
      ],
      "name": "payRent",
      "outputs": [],
      "stateMutability": "payable",
      "type": "function"
    }
  ],
  "bytecode": "0x60806040526000805534801561001457600080fd5b50611145806100246000396000f3fe60806040526004361061007b5760003560e01c8063ac0eba1d1161004e578063ac0eba1d14610151578063c432ef8e1461017a578063d9e8843f146101a3578063e7668c79146101bf5761007b565b8063037d9402146100805780637c2654f6146100bd5780637e71e730146100e8578063a05d098c14610111575b600080fd5b34801561008c57600080fd5b506100a760048036038101906100a29190610bee565b6101fc565b6040516100b49190610e76565b60405180910390f35b3480156100c957600080fd5b506100d261033c565b6040516100df9190610e91565b60405180910390f35b3480156100f457600080fd5b5061010f600480360381019061010a9190610c17565b610342565b005b34801561011d57600080fd5b5061013860048036038101906101339190610bee565b6104b9565b6040516101489493929190610eac565b60405180910390f35b34801561015d57600080fd5b5061017860048036038101906101739190610bee565b610529565b005b34801561018657600080fd5b506101a1600480360381019061019c9190610bee565b610681565b005b6101bd60048036038101906101b89190610bee565b6107d7565b005b3480156101cb57600080fd5b506101e660048036038101906101e19190610bee565b610a59565b6040516101f39190610e91565b60405180910390f35b610204610b85565b8160008111801561021757506000548111155b610256576040517f08c379a000000000000000000000000000000000000000000000000000000000815260040161024d90610e56565b60405180910390fd5b60016000848152602001908152602001600020604051806080016040529081600082015481526020016001820160009054906101000a900473ffffffffffffffffffffffffffffffffffffffff1673ffffffffffffffffffffffffffffffffffffffff1673ffffffffffffffffffffffffffffffffffffffff1681526020016002820160009054906101000a900473ffffffffffffffffffffffffffffffffffffffff1673ffffffffffffffffffffffffffffffffffffffff1673ffffffffffffffffffffffffffffffffffffffff168152602001600382015481525050915050919050565b60005481565b816001600082815260200190815260200160002060010160009054906101000a900473ffffffffffffffffffffffffffffffffffffffff1673ffffffffffffffffffffffffffffffffffffffff163373ffffffffffffffffffffffffffffffffffffffff16146103e7576040517f08c379a00000000000000000000000000000000000000000000000000000000081526004016103de90610e36565b60405180910390fd5b826000811180156103fa57506000548111155b610439576040517f08c379a000000000000000000000000000000000000000000000000000000000815260040161043090610e56565b60405180910390fd5b6001600085815260200190815260200160002060030154831415610492576040517f08c379a000000000000000000000000000000000000000000000000000000000815260040161048990610df6565b60405180910390fd5b60006001600086815260200190815260200160002090508381600301819055505050505050565b60016020528060005260406000206000915090508060000154908060010160009054906101000a900473ffffffffffffffffffffffffffffffffffffffff16908060020160009054906101000a900473ffffffffffffffffffffffffffffffffffffffff16908060030154905084565b806001600082815260200190815260200160002060020160009054906101000a900473ffffffffffffffffffffffffffffffffffffffff1673ffffffffffffffffffffffffffffffffffffffff163373ffffffffffffffffffffffffffffffffffffffff16146105ce576040517f08c379a00000000000000000000000000000000000000000000000000000000081526004016105c590610dd6565b60405180910390fd5b816000811180156105e157506000548111155b610620576040517f08c379a000000000000000000000000000000000000000000000000000000000815260040161061790610e56565b60405180910390fd5b600060016000858152602001908152602001600020905060008160020160006101000a81548173ffffffffffffffffffffffffffffffffffffffff021916908373ffffffffffffffffffffffffffffffffffffffff16021790555050505050565b8060008111801561069457506000548111155b6106d3576040517f08c379a00000000000000000000000000000000000000000000000000000000081526004016106ca90610e56565b60405180910390fd5b600073ffffffffffffffffffffffffffffffffffffffff166001600084815260200190815260200160002060020160009054906101000a900473ffffffffffffffffffffffffffffffffffffffff1673ffffffffffffffffffffffffffffffffffffffff1614610778576040517f08c379a000000000000000000000000000000000000000000000000000000000815260040161076f90610db6565b60405180910390fd5b6000600160008481526020019081526020016000209050338160020160006101000a81548173ffffffffffffffffffffffffffffffffffffffff021916908373ffffffffffffffffffffffffffffffffffffffff160217905550505050565b806001600082815260200190815260200160002060020160009054906101000a900473ffffffffffffffffffffffffffffffffffffffff1673ffffffffffffffffffffffffffffffffffffffff163373ffffffffffffffffffffffffffffffffffffffff161461087c576040517f08c379a000000000000000000000000000000000000000000000000000000000815260040161087390610dd6565b60405180910390fd5b8160008111801561088f57506000548111155b6108ce576040517f08c379a00000000000000000000000000000000000000000000000000000000081526004016108c590610e56565b60405180910390fd5b34600160008581526020019081526020016000206003015414610926576040517f08c379a000000000000000000000000000000000000000000000000000000000815260040161091d90610e16565b60405180910390fd5b600060016000858152602001908152602001600020604051806080016040529081600082015481526020016001820160009054906101000a900473ffffffffffffffffffffffffffffffffffffffff1673ffffffffffffffffffffffffffffffffffffffff1673ffffffffffffffffffffffffffffffffffffffff1681526020016002820160009054906101000a900473ffffffffffffffffffffffffffffffffffffffff1673ffffffffffffffffffffffffffffffffffffffff1673ffffffffffffffffffffffffffffffffffffffff1681526020016003820154815250509050806020015173ffffffffffffffffffffffffffffffffffffffff166108fc349081150290604051600060405180830381858888f19350505050158015610a52573d6000803e3d6000fd5b5050505050565b6000806000815480929190610a6d90610f3e565b9190505550604051806080016040528060005481526020013373ffffffffffffffffffffffffffffffffffffffff168152602001600073ffffffffffffffffffffffffffffffffffffffff1681526020018381525060016000805481526020019081526020016000206000820151816000015560208201518160010160006101000a81548173ffffffffffffffffffffffffffffffffffffffff021916908373ffffffffffffffffffffffffffffffffffffffff16021790555060408201518160020160006101000a81548173ffffffffffffffffffffffffffffffffffffffff021916908373ffffffffffffffffffffffffffffffffffffffff160217905550606082015181600301559050506000549050919050565b604051806080016040528060008152602001600073ffffffffffffffffffffffffffffffffffffffff168152602001600073ffffffffffffffffffffffffffffffffffffffff168152602001600081525090565b600081359050610be8816110f8565b92915050565b600060208284031215610c0057600080fd5b6000610c0e84828501610bd9565b91505092915050565b60008060408385031215610c2a57600080fd5b6000610c3885828601610bd9565b9250506020610c4985828601610bd9565b9150509250929050565b610c5c81610f02565b82525050565b610c6b81610f02565b82525050565b6000610c7e601f83610ef1565b9150610c8982610fb6565b602082019050919050565b6000610ca1602083610ef1565b9150610cac82610fdf565b602082019050919050565b6000610cc4603883610ef1565b9150610ccf82611008565b604082019050919050565b6000610ce7602e83610ef1565b9150610cf282611057565b604082019050919050565b6000610d0a602083610ef1565b9150610d15826110a6565b602082019050919050565b6000610d2d602083610ef1565b9150610d38826110cf565b602082019050919050565b608082016000820151610d596000850182610d98565b506020820151610d6c6020850182610c53565b506040820151610d7f6040850182610c53565b506060820151610d926060850182610d98565b50505050565b610da181610f34565b82525050565b610db081610f34565b82525050565b60006020820190508181036000830152610dcf81610c71565b9050919050565b60006020820190508181036000830152610def81610c94565b9050919050565b60006020820190508181036000830152610e0f81610cb7565b9050919050565b60006020820190508181036000830152610e2f81610cda565b9050919050565b60006020820190508181036000830152610e4f81610cfd565b9050919050565b60006020820190508181036000830152610e6f81610d20565b9050919050565b6000608082019050610e8b6000830184610d43565b92915050565b6000602082019050610ea66000830184610da7565b92915050565b6000608082019050610ec16000830187610da7565b610ece6020830186610c62565b610edb6040830185610c62565b610ee86060830184610da7565b95945050505050565b600082825260208201905092915050565b6000610f0d82610f14565b9050919050565b600073ffffffffffffffffffffffffffffffffffffffff82169050919050565b6000819050919050565b6000610f4982610f34565b91507fffffffffffffffffffffffffffffffffffffffffffffffffffffffffffffffff821415610f7c57610f7b610f87565b5b600182019050919050565b7f4e487b7100000000000000000000000000000000000000000000000000000000600052601160045260246000fd5b7f5468652072656e742068617320616c7265616479206265656e2074616b656e00600082015250565b7f5468652073656e646572206973206e6f7420746865207468652072656e746572600082015250565b7f546865206e65772072656e742076616c7565206d75737420626520646966666560008201527f72656e7420746f207468652070726576696f7573206f6e650000000000000000602082015250565b7f5468652076616c75652073656e64206d75737420626520657175616c20746f2060008201527f7468652072656e742076616c7565000000000000000000000000000000000000602082015250565b7f5468652073656e646572206973206e6f74207468652072656e74206f776e6572600082015250565b7f5468652072656e7420696420676976656e20646f6573206e6f74206578697374600082015250565b61110181610f34565b811461110c57600080fd5b5056fea2646970667358221220c95c7e8244b13ee68dc202fd5c8364938946b58c8b8eceb5f626dc73ad35ee4b64736f6c63430008040033",
  "immutableReferences": {},
  "source": "// SPDX-License-Identifier: MIT\npragma solidity >=0.7.0 <0.9.0;\n\ncontract UniversityHousing {\n\n    struct Rent {\n        uint id;\n        address owner;\n        address renter;\n        uint rentValue;\n    }\n\n    uint public rentCount = 0;\n    mapping(uint => Rent) public rents;\n\n\n    // MODIFIERS\n\n    modifier onlyOwner(uint _rentId) {\n        require(msg.sender == rents[_rentId].owner, \"The sender is not the rent owner\");\n        _;\n    }\n\n    modifier onlyRenter(uint _rentId) {\n        require(msg.sender == rents[_rentId].renter, \"The sender is not the the renter\");\n        _;\n    }\n\n    modifier validRendId(uint _rentId) {\n        require(_rentId > 0 && _rentId <= rentCount, \"The rent id given does not exist\");\n        _;\n    }\n\n\n    // FUNCTIONS\n\n    function getRent(uint _rentId) public view validRendId(_rentId) returns (Rent memory) {\n        return rents[_rentId];\n    }\n\n    function postRent(uint _rentValue) public returns (uint) {\n        rentCount++;\n        rents[rentCount] = Rent(rentCount, msg.sender, address(0x0), _rentValue);\n        return rentCount;\n    }\n\n    function changeRentValue(uint _rentId, uint _rentValue) public onlyOwner(_rentId) validRendId(_rentId) {\n        require(_rentValue != rents[_rentId].rentValue, \"The new rent value must be different to the previous one\");\n        Rent storage rent = rents[_rentId];\n        rent.rentValue = _rentValue;\n    }\n\n    function takeRent(uint _rentId) public validRendId(_rentId) {\n        require(rents[_rentId].renter == address(0x0), \"The rent has already been taken\");\n        Rent storage rent = rents[_rentId];\n        rent.renter = msg.sender;\n    }\n\n    function leaveRent(uint _rentId) public onlyRenter(_rentId) validRendId(_rentId) {\n        Rent storage rent = rents[_rentId];\n        rent.renter = address(0x0);\n    }\n\n    function payRent(uint _rentId) public payable onlyRenter(_rentId) validRendId(_rentId) {\n        require(rents[_rentId].rentValue == msg.value, \"The value send must be equal to the rent value\");\n        Rent memory _rent = rents[_rentId];\n        payable(_rent.owner).transfer(msg.value);\n    }\n}",
  "sourcePath": "/home/jdiegopm/Documentos/BCA-Project/contracts/UniversityHousing.sol",
  "compiler": {
    "name": "solc",
    "version": "0.8.4+commit.c7e474f2.Emscripten.clang"
  },
  "schemaVersion": "3.4.0",
  "updatedAt": "2021-05-06T18:05:31.241Z",
  "devdoc": {
    "kind": "dev",
    "methods": {},
    "version": 1
  },
  "userdoc": {
    "kind": "user",
    "methods": {},
    "version": 1
  }
}