{
  "contractName": "UniversityHousing",
  "abi": [
    {
      "inputs": [],
      "name": "rentCount",
      "outputs": [
        {
          "internalType": "uint256",
          "name": "",
          "type": "uint256"
        }
      ],
      "stateMutability": "view",
      "type": "function",
      "constant": true
    },
    {
      "inputs": [
        {
          "internalType": "uint256",
          "name": "",
          "type": "uint256"
        }
      ],
      "name": "rents",
      "outputs": [
        {
          "internalType": "uint256",
          "name": "id",
          "type": "uint256"
        },
        {
          "internalType": "address",
          "name": "owner",
          "type": "address"
        },
        {
          "internalType": "address",
          "name": "renter",
          "type": "address"
        },
        {
          "internalType": "uint256",
          "name": "rentValue",
          "type": "uint256"
        }
      ],
      "stateMutability": "view",
      "type": "function",
      "constant": true
    },
    {
      "inputs": [
        {
          "internalType": "uint256",
          "name": "_rentId",
          "type": "uint256"
        }
      ],
      "name": "getRent",
      "outputs": [
        {
          "components": [
            {
              "internalType": "uint256",
              "name": "id",
              "type": "uint256"
            },
            {
              "internalType": "address",
              "name": "owner",
              "type": "address"
            },
            {
              "internalType": "address",
              "name": "renter",
              "type": "address"
            },
            {
              "internalType": "uint256",
              "name": "rentValue",
              "type": "uint256"
            }
          ],
          "internalType": "struct UniversityHousing.Rent",
          "name": "",
          "type": "tuple"
        }
      ],
      "stateMutability": "view",
      "type": "function",
      "constant": true
    },
    {
      "inputs": [
        {
          "internalType": "uint256",
          "name": "_rentValue",
          "type": "uint256"
        }
      ],
      "name": "postRent",
      "outputs": [],
      "stateMutability": "nonpayable",
      "type": "function"
    }
  ],
  "bytecode": "0x60806040526000805534801561001457600080fd5b50610613806100246000396000f3fe608060405234801561001057600080fd5b506004361061004c5760003560e01c8063037d9402146100515780637c2654f614610081578063a05d098c1461009f578063e7668c79146100d2575b600080fd5b61006b600480360381019061006691906103dd565b6100ee565b6040516100789190610497565b60405180910390f35b6100896101db565b60405161009691906104b2565b60405180910390f35b6100b960048036038101906100b491906103dd565b6101e1565b6040516100c994939291906104cd565b60405180910390f35b6100ec60048036038101906100e791906103dd565b610251565b005b6100f6610374565b60016000838152602001908152602001600020604051806080016040529081600082015481526020016001820160009054906101000a900473ffffffffffffffffffffffffffffffffffffffff1673ffffffffffffffffffffffffffffffffffffffff1673ffffffffffffffffffffffffffffffffffffffff1681526020016002820160009054906101000a900473ffffffffffffffffffffffffffffffffffffffff1673ffffffffffffffffffffffffffffffffffffffff1673ffffffffffffffffffffffffffffffffffffffff1681526020016003820154815250509050919050565b60005481565b60016020528060005260406000206000915090508060000154908060010160009054906101000a900473ffffffffffffffffffffffffffffffffffffffff16908060020160009054906101000a900473ffffffffffffffffffffffffffffffffffffffff16908060030154905084565b6000808154809291906102639061054e565b9190505550604051806080016040528060005481526020013373ffffffffffffffffffffffffffffffffffffffff168152602001600073ffffffffffffffffffffffffffffffffffffffff1681526020018281525060016000805481526020019081526020016000206000820151816000015560208201518160010160006101000a81548173ffffffffffffffffffffffffffffffffffffffff021916908373ffffffffffffffffffffffffffffffffffffffff16021790555060408201518160020160006101000a81548173ffffffffffffffffffffffffffffffffffffffff021916908373ffffffffffffffffffffffffffffffffffffffff1602179055506060820151816003015590505050565b604051806080016040528060008152602001600073ffffffffffffffffffffffffffffffffffffffff168152602001600073ffffffffffffffffffffffffffffffffffffffff168152602001600081525090565b6000813590506103d7816105c6565b92915050565b6000602082840312156103ef57600080fd5b60006103fd848285016103c8565b91505092915050565b61040f81610512565b82525050565b61041e81610512565b82525050565b60808201600082015161043a6000850182610479565b50602082015161044d6020850182610406565b5060408201516104606040850182610406565b5060608201516104736060850182610479565b50505050565b61048281610544565b82525050565b61049181610544565b82525050565b60006080820190506104ac6000830184610424565b92915050565b60006020820190506104c76000830184610488565b92915050565b60006080820190506104e26000830187610488565b6104ef6020830186610415565b6104fc6040830185610415565b6105096060830184610488565b95945050505050565b600061051d82610524565b9050919050565b600073ffffffffffffffffffffffffffffffffffffffff82169050919050565b6000819050919050565b600061055982610544565b91507fffffffffffffffffffffffffffffffffffffffffffffffffffffffffffffffff82141561058c5761058b610597565b5b600182019050919050565b7f4e487b7100000000000000000000000000000000000000000000000000000000600052601160045260246000fd5b6105cf81610544565b81146105da57600080fd5b5056fea264697066735822122045da1c7d827cfb935a662ca1c130963f312f262466d8b0792b5ee65c6b3f67fe64736f6c63430008040033",
  "immutableReferences": {},
  "source": "// SPDX-License-Identifier: MIT\npragma solidity >=0.7.0 <0.9.0;\n\ncontract UniversityHousing {\n\n    struct Rent {\n        uint id;\n        address owner;\n        address renter;\n        uint rentValue;\n    }\n\n    uint public rentCount = 0;\n    mapping(uint => Rent) public rents;\n\n\n    // MODIFIERS\n\n    modifier onlyOwner(uint _rentId) {\n        require(msg.sender == rents[_rentId].owner, \"The sender is not the rent owner\");\n        _;\n    }\n\n    modifier onlyRenter(uint _rentId) {\n        require(msg.sender == rents[_rentId].renter, \"The sender is not the the renter\");\n        _;\n    }\n\n\n    // FUNCTIONS\n\n    function getRent(uint _rentId) public view returns (Rent memory) {\n        return rents[_rentId];\n    }\n\n    function postRent(uint _rentValue) public {\n        rentCount++;\n        rents[rentCount] = Rent(rentCount, msg.sender, address(0x0), _rentValue);\n    }\n    \n    // function deleteRent(uint _rentId) public onlyOwner(_rentId) returns (bool) {\n    //     return false;\n    // }\n\n    // function changeRentValue(uint _rentId, uint _rentValue) public onlyOwner(_rentId) returns (uint) {\n    //     return 1000;\n    // }\n\n    // function takeRent(uint _rentId) public returns (uint) {\n    //     return 1000;\n    // }\n\n    // function leaveRent(uint _rentId) onlyRenter(_rentId) public returns (bool) {\n    //     return false;\n    // }\n\n    // function payRent(uint _rentId) payable onlyRenter(_rentId) public returns (bool) {\n    //     return false;\n    // }\n}",
  "sourcePath": "/home/jdiegopm/Documentos/BCA-Project/contracts/UniversityHousing.sol",
  "compiler": {
    "name": "solc",
    "version": "0.8.4+commit.c7e474f2.Emscripten.clang"
  },
  "schemaVersion": "3.4.0",
  "updatedAt": "2021-05-06T14:22:25.258Z",
  "networkType": "ethereum",
  "devdoc": {
    "kind": "dev",
    "methods": {},
    "version": 1
  },
  "userdoc": {
    "kind": "user",
    "methods": {},
    "version": 1
  }
}